S0150000444F5F414E5F43554F495F4B592E73726563FC
S11300000C942A000C94A4010C94B6010C943C00AA
S11300100C943C000C943C000C943C000C943C006C
S11300200C943C000C943C000C943C000C94F8019F
S11300300C943C000C943C000C943C000C943C004C
S11300400C943C000C943C000C943C000C94C701B0
S11300500C943C0011241FBECFE5D4E0DEBFCDBF1D
S113006020E0A0E6B0E001C01D92A536B207E1F79A
S11300700E9434020C9479040C9400009C0191B306
S11300809B7F91BB92B3946092BB9BB790649BBFE0
S11300909AB790649ABF2230310579F024F4213064
S11300A0310541F008952330310559F024303105EC
S11300B061F0089585B785BF089585B7816085BFD0
S11300C0089585B7826085BF089585B7836085BF2D
S11300D008959C0191B3977F91BB92B3986092BBB2
S11300E09BB790689BBF9AB790689ABF223031053E
S11300F079F024F42130310541F00895233031059D
S113010059F02430310561F0089585B785BF08950D
S113011085B7846085BF089585B7886085BF0895D5
S113012085B78C6085BF08959695982F88279795F5
S11301308795002476956795079476956795079437
S1130140762F602D440F551F42955295507F5427AA
S1130150407F5427682B462B4093640047B983E8BB
S113016086B9089590916400892B87B986B180641B
S113017086B9349BFECF86B1806186B984B195B1CE
S1130180089523B7286023BF811521E0920721F148
S113019050F488309105C1F080349105C9F0813064
S11301A0910549F50DC0811524E09207C9F08F30FF
S11301B027E29207E9F0873E23E09207E1F414C0B6
S11301C023B7216023BF17C023B7226023BF13C006
S11301D023B7236023BF0FC023B7246023BF0BC002
S11301E023B7256023BF07C023B7266023BF03C0FE
S11301F023B7276023BF9C01A8EEB3E00E945604F6
S11302009B01AC0160E072E18AE790E00E94340453
S11302102CBF89B7826089BF08959C01990F440B54
S1130220550B60E271EA87E090E00E9434042150AB
S1130230310930BD29B988E98AB986E880BD0895B5
S11302405D9BFECF8CB90895EF92FF920F931F939D
S1130250CF93DF93CDB7DEB72A970FB6F894DEBFFE
S11302600FBECDBF8C01009721F480E30E942001D2
S113027031C0992334F48DE20E9420011195019537
S11302801109E12CF12C20E030E012C0C8016AE031
S113029070E00E942004E1E0F0E0EC0FFD1FE20FAB
S11302A0F31F805D8083062F172F79012F5F3F4F47
S11302B00115110559F70CC0E1E0F0E0EC0FFD1F4A
S11302C0EE0DFF1D80810E94200181E0E81AF108F3
S11302D0FF2094F78DE00E9420018AE00E94200113
S11302E02A960FB6F894DEBF0FBECDBFDF91CF9133
S11302F01F910F91FF90EF9008958FEF87BB18BA6D
S113030084B3816084BB85B38E7F85BB08956133DC
S113031069F448B321E030E0B90102C0660F771FE9
S11303208A95E2F7CB01842B88BB089548B321E07A
S113033030E0B90102C0660F771F8A95E2F7CB015E
S11303408095842388BB08951F920F920FB60F9255
S113035011248F9381E08093620085B3816085BB13
S11303608F910F900FBE0F901F9018951F920F92B0
S11303700FB60F9211248F931092620085B38E7F73
S113038085BB8F910F900FBE0F901F9018951F92F1
S11303900F920FB60F9211242F938F939F938091F6
S11303A062008823C9F080916000909161000196F9
S11303B0909361008093600080916000909161004F
S11303C0843F914069F495B381E0892785BB1092FD
S11303D061001092600004C01092610010926000ED
S11303E09F918F912F910F900FBE0F901F90189592
S11303F01F920F920FB60F9211242F933F934F9396
S11304005F936F937F938F939F93AF93BF93CF9398
S1130410EF93FF93809162008823A1F0CCB1809187
S113042063006C2F90E00E948701809163008F5FCE
S11304308093630080916300883011F0C11102C081
S113044010926300FF91EF91CF91BF91AF919F9173
S11304508F917F916F915F914F913F912F910F9069
S11304600FBE0F901F90189540E050E061E070E0DF
S113047081E090E00E94940083E090E00E943E00BE
S113048083E090E00E94690080E490E00E94C10053
S113049080E895E20E940D010E947D01789480918C
S11304A062008823E1F381E00E94B20024E6AC01FB
S11304B0249FC001259F900D1124BC0180E090E091
S11304C00E9425032AE037ED43E250E40E94B3037F
S11304D020E030EC4FE754E40E947D020E94EF02DA
S11304E0CB010E9424015FEF89E698E151508040DE
S11304F09040E1F700C00000D2CF0E9491020C941A
S113050079030E94720358F00E946B0340F029F4AF
S11305105F3F29F00C94620351110C94AD030C94C9
S113052068030E948A0368F39923B1F3552391F376
S1130530951B550BBB27AA2762177307840738F04E
S11305409F5F5F4F220F331F441FAA1FA9F335D0AB
S11305500E2E3AF0E0E832D091505040E695001C5F
S1130560CAF72BD0FE2F29D0660F771F881FBB1F19
S1130570261737074807AB07B0E809F0BB0B802DF7
S1130580BF01FF2793585F4F3AF09E3F510578F023
S11305900C9462030C94AD035F3FE4F3983ED4F3F0
S11305A0869577956795B795F7959F5FC9F7880FF7
S11305B0911D9695879597F90895E1E0660F771F49
S11305C0881FBB1F621773078407BA0720F0621BDA
S11305D0730B840BBA0BEE1F88F7E09508950E9405
S11305E0F6026894B1110C94AD0308950E9492032D
S11305F088F09F5798F0B92F9927B751B0F0E1F0E0
S1130600660F771F881F991F1AF0BA95C9F714C08F
S1130610B13091F00E94AC03B1E008950C94AC03A6
S1130620672F782F8827B85F39F0B93FCCF38695C8
S113063077956795B395D9F73EF490958095709525
S113064061957F4F8F4F9F4F0895E89409C097FBA2
S11306503EF490958095709561957F4F8F4F9F4F95
S11306609923A9F0F92F96E9BB279395F6958795D9
S113067077956795B795F111F8CFFAF4BB0F11F49C
S113068060FF1BC06F5F7F4F8F4F9F4F16C0882343
S113069011F096E911C0772321F09EE8872F762F79
S11306A005C0662371F096E8862F70E060E02AF0BA
S11306B09A95660F771F881FDAF7880F96958795A6
S11306C097F9089597F99F6780E870E060E00895CE
S11306D09FEF80EC089500240A9416161706180656
S11306E00906089500240A94121613061406050632
S11306F00895092E0394000C11F4882352F0BB0FC3
S113070040F4BF2B11F460FF04C06F5F7F4F8F4F25
S11307109F4F089557FD9058440F551F59F05F3F60
S113072071F04795880F97FB991F61F09F3F79F00F
S113073087950895121613061406551FF2CF469591
S1130740F1DF08C0161617061806991FF1CF869513
S11307507105610508940895E894BB2766277727F7
S1130760CB0197F908950E94C6030C9479030E9463
S11307706B0338F00E94720320F0952311F00C945F
S113078062030C94680311240C94AD030E948A0341
S113079070F3959FC1F3950F50E0551F629FF001D0
S11307A0729FBB27F00DB11D639FAA27F00DB11DE9
S11307B0AA1F649F6627B00DA11D661F829F222772
S11307C0B00DA11D621F739FB00DA11D621F839FF9
S11307D0A00D611D221F749F3327A00D611D231FCF
S11307E0849F600D211D822F762F6A2F11249F571D
S11307F050409AF0F1F088234AF0EE0FFF1FBB1F20
S1130800661F771F881F91505040A9F79E3F5105DE
S113081080F00C9462030C94AD035F3FE4F3983EC4
S1130820D4F3869577956795B795F795E7959F5F88
S1130830C1F7FE2B880F911D9695879597F908951A
S113084097FB072E16F4009407D077FD09D00E9479
S1130850650407FC05D03EF4909581959F4F08955B
S1130860709561957F4F0895A1E21A2EAA1BBB1BB8
S1130870FD010DC0AA1FBB1FEE1FFF1FA217B30768
S1130880E407F50720F0A21BB30BE40BF50B661F7E
S1130890771F881F991F1A9469F760957095809542
S11308A090959B01AC01BD01CF010895A29FB001B9
S11308B0B39FC001A39F700D811D1124911DB29F90
S11308C0700D811D1124911D0895AA1BBB1B51E1BC
S11308D007C0AA1FBB1FA617B70710F0A61BB70BAC
S11308E0881F991F5A95A9F780959095BC01CD0151
S10908F00895F894FFCF07
S9030000FC
